{
  "_format": "hh-sol-artifact-1",
  "contractName": "GmPortal",
  "sourceName": "contracts/GmPortal.sol",
  "abi": [
    {
      "inputs": [],
      "stateMutability": "payable",
      "type": "constructor"
    },
    {
      "anonymous": false,
      "inputs": [
        {
          "indexed": true,
          "internalType": "address",
          "name": "from",
          "type": "address"
        },
        {
          "indexed": false,
          "internalType": "uint256",
          "name": "timestamp",
          "type": "uint256"
        },
        {
          "indexed": false,
          "internalType": "string",
          "name": "nickname",
          "type": "string"
        }
      ],
      "name": "NewGm",
      "type": "event"
    },
    {
      "inputs": [],
      "name": "getAllGms",
      "outputs": [
        {
          "components": [
            {
              "internalType": "address",
              "name": "gmer",
              "type": "address"
            },
            {
              "internalType": "string",
              "name": "nickname",
              "type": "string"
            },
            {
              "internalType": "uint256",
              "name": "timestamp",
              "type": "uint256"
            }
          ],
          "internalType": "struct GmPortal.Gm[]",
          "name": "",
          "type": "tuple[]"
        }
      ],
      "stateMutability": "view",
      "type": "function"
    },
    {
      "inputs": [],
      "name": "getTotalGms",
      "outputs": [
        {
          "internalType": "uint256",
          "name": "",
          "type": "uint256"
        }
      ],
      "stateMutability": "view",
      "type": "function"
    },
    {
      "inputs": [
        {
          "internalType": "string",
          "name": "_nickname",
          "type": "string"
        }
      ],
      "name": "gm",
      "outputs": [],
      "stateMutability": "nonpayable",
      "type": "function"
    },
    {
      "inputs": [
        {
          "internalType": "address",
          "name": "",
          "type": "address"
        }
      ],
      "name": "lastGmedAt",
      "outputs": [
        {
          "internalType": "uint256",
          "name": "",
          "type": "uint256"
        }
      ],
      "stateMutability": "view",
      "type": "function"
    }
  ],
  "bytecode": "0x60806040526200003360405180606001604052806025815260200162001451602591396200005b60201b620006471760201c565b60644442620000439190620001a8565b6200004f919062000245565b600181905550620002ec565b620000fb8160405160240162000072919062000168565b6040516020818303038152906040527f41304fac000000000000000000000000000000000000000000000000000000007bffffffffffffffffffffffffffffffffffffffffffffffffffffffff19166020820180517bffffffffffffffffffffffffffffffffffffffffffffffffffffffff8381831617835250505050620000fe60201b60201c565b50565b60008151905060006a636f6e736f6c652e6c6f679050602083016000808483855afa5050505050565b600062000134826200018c565b62000140818562000197565b9350620001528185602086016200020f565b6200015d81620002db565b840191505092915050565b6000602082019050818103600083015262000184818462000127565b905092915050565b600081519050919050565b600082825260208201905092915050565b6000620001b58262000205565b9150620001c28362000205565b9250827fffffffffffffffffffffffffffffffffffffffffffffffffffffffffffffffff03821115620001fa57620001f96200027d565b5b828201905092915050565b6000819050919050565b60005b838110156200022f57808201518184015260208101905062000212565b838111156200023f576000848401525b50505050565b6000620002528262000205565b91506200025f8362000205565b925082620002725762000271620002ac565b5b828206905092915050565b7f4e487b7100000000000000000000000000000000000000000000000000000000600052601160045260246000fd5b7f4e487b7100000000000000000000000000000000000000000000000000000000600052601260045260246000fd5b6000601f19601f8301169050919050565b61115580620002fc6000396000f3fe608060405234801561001057600080fd5b506004361061004c5760003560e01c80633a05e29e14610051578063797811811461006f5780638a215be31461009f578063d8686ecb146100bd575b600080fd5b6100596100d9565b6040516100669190610bf3565b60405180910390f35b61008960048036038101906100849190610961565b61022a565b6040516100969190610cf7565b60405180910390f35b6100a7610242565b6040516100b49190610cf7565b60405180910390f35b6100d760048036038101906100d2919061098a565b61028d565b005b60606003805480602002602001604051908101604052809291908181526020016000905b8282101561022157838290600052602060002090600302016040518060600160405290816000820160009054906101000a900473ffffffffffffffffffffffffffffffffffffffff1673ffffffffffffffffffffffffffffffffffffffff1673ffffffffffffffffffffffffffffffffffffffff16815260200160018201805461018690610edd565b80601f01602080910402602001604051908101604052809291908181526020018280546101b290610edd565b80156101ff5780601f106101d4576101008083540402835291602001916101ff565b820191906000526020600020905b8154815290600101906020018083116101e257829003601f168201915b50505050508152602001600282015481525050815260200190600101906100fd565b50505050905090565b60026020528060005260406000206000915090505481565b60006102856040518060400160405280601581526020017f5765206861766520256420746f74616c20676d732100000000000000000000008152506000546106e0565b600054905090565b42610384600260003373ffffffffffffffffffffffffffffffffffffffff1673ffffffffffffffffffffffffffffffffffffffff168152602001908152602001600020546102db9190610e09565b1061031b576040517f08c379a000000000000000000000000000000000000000000000000000000000815260040161031290610cd7565b60405180910390fd5b42600260003373ffffffffffffffffffffffffffffffffffffffff1673ffffffffffffffffffffffffffffffffffffffff1681526020019081526020016000208190555060016000808282546103719190610e09565b925050819055506103b76040518060400160405280600b81526020017f25732068617320676d64210000000000000000000000000000000000000000008152503361077c565b600360405180606001604052803373ffffffffffffffffffffffffffffffffffffffff16815260200183815260200142815250908060018154018082558091505060019003906000526020600020906003020160009091909190915060008201518160000160006101000a81548173ffffffffffffffffffffffffffffffffffffffff021916908373ffffffffffffffffffffffffffffffffffffffff1602179055506020820151816001019080519060200190610476929190610841565b506040820151816002015550503373ffffffffffffffffffffffffffffffffffffffff167fee86ba231d4398fdc6bddfeaf10d67c92be43790841bf9ae08cc7c476f01294e42836040516104cb929190610d12565b60405180910390a2606460015442446104e49190610e09565b6104ee9190610e09565b6104f89190610f40565b600181905550603260015411610644576105476040518060400160405280600781526020017f257320776f6e21000000000000000000000000000000000000000000000000008152503361077c565b6000655af3107a4000905047811115610595576040517f08c379a000000000000000000000000000000000000000000000000000000000815260040161058c90610c97565b60405180910390fd5b60003373ffffffffffffffffffffffffffffffffffffffff16826040516105bb90610bde565b60006040518083038185875af1925050503d80600081146105f8576040519150601f19603f3d011682016040523d82523d6000602084013e6105fd565b606091505b5050905080610641576040517f08c379a000000000000000000000000000000000000000000000000000000000815260040161063890610cb7565b60405180910390fd5b50505b50565b6106dd8160405160240161065b9190610c15565b6040516020818303038152906040527f41304fac000000000000000000000000000000000000000000000000000000007bffffffffffffffffffffffffffffffffffffffffffffffffffffffff19166020820180517bffffffffffffffffffffffffffffffffffffffffffffffffffffffff8381831617835250505050610818565b50565b61077882826040516024016106f6929190610c67565b6040516020818303038152906040527f9710a9d0000000000000000000000000000000000000000000000000000000007bffffffffffffffffffffffffffffffffffffffffffffffffffffffff19166020820180517bffffffffffffffffffffffffffffffffffffffffffffffffffffffff8381831617835250505050610818565b5050565b6108148282604051602401610792929190610c37565b6040516020818303038152906040527f319af333000000000000000000000000000000000000000000000000000000007bffffffffffffffffffffffffffffffffffffffffffffffffffffffff19166020820180517bffffffffffffffffffffffffffffffffffffffffffffffffffffffff8381831617835250505050610818565b5050565b60008151905060006a636f6e736f6c652e6c6f679050602083016000808483855afa5050505050565b82805461084d90610edd565b90600052602060002090601f01602090048101928261086f57600085556108b6565b82601f1061088857805160ff19168380011785556108b6565b828001600101855582156108b6579182015b828111156108b557825182559160200191906001019061089a565b5b5090506108c391906108c7565b5090565b5b808211156108e05760008160009055506001016108c8565b5090565b60006108f76108f284610d67565b610d42565b90508281526020810184848401111561090f57600080fd5b61091a848285610e9b565b509392505050565b60008135905061093181611108565b92915050565b600082601f83011261094857600080fd5b81356109588482602086016108e4565b91505092915050565b60006020828403121561097357600080fd5b600061098184828501610922565b91505092915050565b60006020828403121561099c57600080fd5b600082013567ffffffffffffffff8111156109b657600080fd5b6109c284828501610937565b91505092915050565b60006109d78383610b70565b905092915050565b6109e881610e5f565b82525050565b6109f781610e5f565b82525050565b6000610a0882610da8565b610a128185610dcb565b935083602082028501610a2485610d98565b8060005b85811015610a605784840389528151610a4185826109cb565b9450610a4c83610dbe565b925060208a01995050600181019050610a28565b50829750879550505050505092915050565b6000610a7d82610db3565b610a878185610de7565b9350610a97818560208601610eaa565b610aa08161102d565b840191505092915050565b6000610ab682610db3565b610ac08185610df8565b9350610ad0818560208601610eaa565b610ad98161102d565b840191505092915050565b6000610af1603483610df8565b9150610afc8261103e565b604082019050919050565b6000610b14602783610df8565b9150610b1f8261108d565b604082019050919050565b6000610b37600083610ddc565b9150610b42826110dc565b600082019050919050565b6000610b5a600883610df8565b9150610b65826110df565b602082019050919050565b6000606083016000830151610b8860008601826109df565b5060208301518482036020860152610ba08282610a72565b9150506040830151610bb56040860182610bc0565b508091505092915050565b610bc981610e91565b82525050565b610bd881610e91565b82525050565b6000610be982610b2a565b9150819050919050565b60006020820190508181036000830152610c0d81846109fd565b905092915050565b60006020820190508181036000830152610c2f8184610aab565b905092915050565b60006040820190508181036000830152610c518185610aab565b9050610c6060208301846109ee565b9392505050565b60006040820190508181036000830152610c818185610aab565b9050610c906020830184610bcf565b9392505050565b60006020820190508181036000830152610cb081610ae4565b9050919050565b60006020820190508181036000830152610cd081610b07565b9050919050565b60006020820190508181036000830152610cf081610b4d565b9050919050565b6000602082019050610d0c6000830184610bcf565b92915050565b6000604082019050610d276000830185610bcf565b8181036020830152610d398184610aab565b90509392505050565b6000610d4c610d5d565b9050610d588282610f0f565b919050565b6000604051905090565b600067ffffffffffffffff821115610d8257610d81610ffe565b5b610d8b8261102d565b9050602081019050919050565b6000819050602082019050919050565b600081519050919050565b600081519050919050565b6000602082019050919050565b600082825260208201905092915050565b600081905092915050565b600082825260208201905092915050565b600082825260208201905092915050565b6000610e1482610e91565b9150610e1f83610e91565b9250827fffffffffffffffffffffffffffffffffffffffffffffffffffffffffffffffff03821115610e5457610e53610f71565b5b828201905092915050565b6000610e6a82610e71565b9050919050565b600073ffffffffffffffffffffffffffffffffffffffff82169050919050565b6000819050919050565b82818337600083830152505050565b60005b83811015610ec8578082015181840152602081019050610ead565b83811115610ed7576000848401525b50505050565b60006002820490506001821680610ef557607f821691505b60208210811415610f0957610f08610fcf565b5b50919050565b610f188261102d565b810181811067ffffffffffffffff82111715610f3757610f36610ffe565b5b80604052505050565b6000610f4b82610e91565b9150610f5683610e91565b925082610f6657610f65610fa0565b5b828206905092915050565b7f4e487b7100000000000000000000000000000000000000000000000000000000600052601160045260246000fd5b7f4e487b7100000000000000000000000000000000000000000000000000000000600052601260045260246000fd5b7f4e487b7100000000000000000000000000000000000000000000000000000000600052602260045260246000fd5b7f4e487b7100000000000000000000000000000000000000000000000000000000600052604160045260246000fd5b6000601f19601f8301169050919050565b7f547279696e6720746f207769746864726177206d6f7265206d6f6e657920746860008201527f616e2074686520636f6e7472616374206861732e000000000000000000000000602082015250565b7f4661696c656420746f207769746864726177206d6f6e65792066726f6d20636f60008201527f6e74726163742e00000000000000000000000000000000000000000000000000602082015250565b50565b7f576169742031356d000000000000000000000000000000000000000000000000600082015250565b61111181610e5f565b811461111c57600080fd5b5056fea2646970667358221220d7646cc4c81a1b47cd5ca42924a4cbe203b1cffb95a97f380c4919fb18335cb064736f6c63430008040033596f20796f2c204920616d206120636f6e747261637420616e64204920616d20736d617274",
  "linkReferences": {},
  "deployedLinkReferences": {}
}